S31500000000480320206D01000071010000730100000B
S3150000001000000000000000000000000000000000DA
S315000000200000000000000000000000007501000054
S3150000003000000000000000007701000069110000C8
S315000000407B0100007B0100007B0100007B010000BA
S315000000507B0100007B0100007B0100007B010000AA
S31500000060000000007B0100007B0100000000000092
S31500000070000000007B0100007B0100007B01000006
S315000000807B0100007B0100007B0100007B0100007A
S315000000907B0100007B010000000000000000000062
S315000000A07B0100007B010000000000000000000052
S315000000B07B010000000000007B0100007B010000C6
S315000000C000F002F800F042F812A030C808382418F0
S315000000D02D18AC4201D100F039F80FCCA246AB4640
S315000000E00CA730CF2D1B083F3F197C427F1E54447E
S315000000F02D090426F441641EAC4201D300F026F813
S315000001000126334200D0FB1A3343984754465D46D6
S31500000110DFE70000EC110000FC1100000000000009
S315000001207047000000000000002300240025002680
S31500000130103A01D378C1FBD8520700D330C100D59D
S315000001400B6070471FB51FBD10B510BD00F027F836
S315000001501146FFF7F7FF01F08EF800F03FF803B401
S31500000160FFF7F2FF03BC00F045F800000648004721
S31500000170FEE7FEE7FEE7FEE7FEE7FEE70348044983
S31500000180024A044B70470000C100000048022020CC
S315000001904803202048022020704770477047754664
S315000001A000F024F8AE46050069465346C008C00074
S315000001B0854618B020B5FFF7E1FF60BCB6460026BD
S315000001C00027C0C5C0C5C0C5C0C5C0C5C0C5C0C55F
S315000001D0C0C5403D490849008D46704710B50446E4
S315000001E0C046C0462046FFF7BAFF10BD004870471C
S315000001F00000202001491820ABBEFEE726000200C1
S31500000200704710B585B00092024600980B9C0A9C78
S31500000210099C089C079C049203AA11700290019302
S3150000022002980199084307990843089908430999D0
S3150000023008430A9908430B990843049912789200D7
S3150000024089182322D201885005B010BD81B00090D4
S31500000250009911200202885801231843885001B0E2
S315000002607047000081B0009000990120C202C74883
S31500000270885001B07047C04681B000900099D94AB5
S31500000280D948885001B07047B0B50A7803231340A7
S315000002900B4A84580B4D2540EB18A92424061B193C
S315000002A08350072212064B68134011242402055975
S315000002B09543EA180251001949780161B0BDC0465C
S315000002C008080000FCFFFF00811E091F00BFFCD2CA
S315000002D0704784B0039002910192039800680090E1
S315000002E0009801998843009000980299019A11405C
S315000002F008430399086004B07047000082B001907B
S315000003000091009B0199034A88581843885002B00F
S315000003107047C0464810000082B0019000910098D6
S31500000320019995225201885002B0704782B001901F
S3150000033000910098019995225201885002B07047A9
S3150000034081B00090009881004B4A885801235B06D3
S315000003501843885001B0704782B001900091009B0D
S315000003600199034A88581843885002B07047C0461E
S315000003702810000082B00190009100980199024A6D
S31500000380885002B07047C046D012000081B000907D
S3150000039000990120C202D148885001B07047C0467A
S315000003A010B584B0069C03900291019200930299C5
S315000003B00198014300980143069A012003071A4059
S315000003C01143084A1143039A93002B4A9950069BFE
S315000003D0C00603400398810088581843885004B02B
S315000003E010BDC0468100040081B0009000988100D5
S315000003F0214A8120885001B07047C04682B00190E2
S315000004000091009815490843019989001A4A8850B5
S3150000041002B0704710B584B0079C069C0390029109
S3150000042001920093029901980143009801430698AE
S315000004300143079A012003071A401143074A114353
S31500000440039A93000C4A9950079BC00603400398F1
S31500000450810088581843885004B010BD80000400FD
S3150000046082B001900091009880210843019989008B
S31500000470014A885002B070470480424081B0009023
S315000004800099DE4ADE48885001B0704782B001907C
S315000004900091009B0199034A88581843885002B07E
S315000004A07047C0469013000082B0019000910098FA
S315000004B00199024A885002B07047C0469012000067
S315000004C082B001900091009B01999D2042018858BD
S315000004D01843885002B0704781B0009000990920F7
S315000004E04202885801231B021843885001B0704706
S315000004F081B0009000990120C2027848885001B06E
S315000005007047C04681B000900099BC4ABC488850EC
S3150000051001B0704780B584B00191014601980391FE
S3150000052002A908800398092252028018098803222A
S315000005305202FFF7CEFE04B080BD70B50A780C23D8
S315000005401A400124240305196E689E43B2186A6096
S31500000550497807221140035993435918015170BD38
S3150000056081B000900099034A8858012318438850A7
S3150000057001B070470411000081B00090009901207D
S31500000580C202D748885001B07047C0460100002615
S31500000590B0B51122120283580C4C1C400B894D88B1
S315000005A01D438B792B430A4D1D402B1983508B8895
S315000005B0CC791C43097821435D239B0019408018A0
S315000005C042689A4389184160B0BDC04680CCFFFF9F
S315000005D07F33000081B000900099D84AD8488850EF
S315000005E001B0704704080000030000B180B582B076
S315000005F0019000910198334940180099024AFFF78B
S3150000060068FE02B080BDC046FF03000010B501229F
S31500000610120383180C785C604978815010BD000085
S3150000062080B584B000920A4601460098039102A95B
S315000006300A7001AA107003988E4BC01809781278B8
S3150000064011433F22FFF745FE04B080BD0649086806
S31500000650012290430860704703490868012212028C
S31500000660904308607047C04608010B40034908687C
S3150000067001221203104308607047C04604010B4074
S3150000068081B001466846017000780249086001B0F1
S315000006907047C04608030B4080B582B0014601A8EA
S315000006A00170017802480322FFF713FE02B080BDF5
S315000006B000010B4081B000900099024A0120885049
S315000006C001B070470811000081B000900099012028
S315000006D0C2028348885001B07047C0460100002618
S315000006E0F0B5724A82183B4BC31808794E793A4DD9
S315000006F03A4C002E23D0202804D00526F6010028E7
S3150000070003D003E0364E002800D18826576F2F40CD
S3150000071037435767976F2F4037439767566B264087
S315000007205663966B264096630026566596658F2619
S31500000730F6435F6837405F609F6837409F608E79F9
S31500000740096820280BD0002819D1491E5160D76EA0
S315000007502F4088210F43D7661746703719E0491E88
S315000007605160D16E29401E4F3943D166116F294021
S3150000077039431167012149071A4D174609E049080F
S315000007805160D76E2F400521C9010F43D766174622
S3150000079070373C682C400C433C60D16A0F4C2140BA
S315000007A0D162116B214011630021D16411658F2143
S315000007B0C943D46F0C40D4671C680C401C600643C8
S315000007C0BD2030401168084B0B40C018801C1060DB
S315000007D0F0BDC0468418000024493E008888FDFF0D
S315000007E001040000FFFFFFCF4000FFCF81B0009063
S315000007F00099524A5248885001B0704704080000D8
S31500000800030000B182B00190009100980199112275
S315000008101202885002B0704710B507239B04194096
S3150000082092008018024A84589C436118815010BD7A
S315000008303018000010B5029CA4000019114319439A
S31500000840014A815010BDC046501800009200801821
S31500000850014A81507047C0461018000010B50122A9
S31500000860120383180C789C604B7883508978014A70
S31500000870815010BD0C11000010B586B001930B46D7
S3150000088001460198059104A90B8003AB1A8002AAC0
S3150000089010800598054C001909881B881943128891
S315000008A01143034AFFF715FD06B010BD04180000FA
S315000008B080FF000081B00090009911200202885844
S315000008C001231843885001B07047000081B00090A2
S315000008D000990120C2020248885001B07047C04604
S315000008E001000026B0B51122120283580124A34349
S315000008F083500B888C781C438B882343094C1C40FF
S315000009008358094D1D40631983508B79CC791C435C
S31500000910097A21437E231940801842689A43511868
S315000009204160B0BD18670000E798FDFF81B00090F8
S315000009300099024A0248885001B070470408000036
S31500000940030000B180B584B0039002910192039830
S315000009500B49401802990B4AFFF7BBFC03980A495A
S31500000960401801993F22FFF7B4FC0399074A8818FB
S31500000970895801221140FFF7ACFC04B080BDC04687
S3150000098010110000FFFF0000141100000411000008
S3150000099010B50122120383180C789C6049788150A7
S315000009A010BD80B582B00190009101981121090215
S315000009B0401800990322D203FFF78BFC02B080BDDA
S315000009C080B586B00A490B480590FFF75DFC05988F
S315000009D000230493039302930193009319461A4646
S315000009E0FFF70FFC0598FFF731FC06B080BDC04647
S315000009F0901200000020004080B592B034200521FE
S31500000A000F91FFF72DFD01200290C10593480C9030
S31500000A10FFF7B0FC0F993520FFF722FD02990C98DD
S31500000A200906FFF7A7FC162007210491FFF718FD1A
S31500000A308B4810904021FFF79DFC04991720FFF783
S31500000A400FFD10988021FFF795FC382006210691AE
S31500000A50FFF706FD029910988906FFF78BFC0298AE
S31500000A60002309930193C0040A9000900321089182
S31500000A7018461A46FFF7CEFC02980899099B0A9A6F
S31500000A80019300921A46FFF7C5FC0998FFF758FC38
S31500000A900298FFF755FC0498099B0A990193009167
S31500000AA0092103911A46FFF7B5FC0399099B0A9899
S31500000AB001930090082005901A46FFF7ABFC0498B6
S31500000AC0FFF73EFC0598FFF73BFC14200221079137
S31500000AD0FFF7C6FC07991520FFF790FC07990E2033
S31500000AE0FFF7BEFC07990F20FFF788FC07991F2028
S31500000AF0FFF7B6FC07992020FFF780FC089919201C
S31500000B00FFF7AEFC08991820FFF7AAFC08992520E4
S31500000B10FFF774FC08992F20FFF7A2FC0899212003
S31500000B20FFF79EFC08992320FFF79AFC08992220DC
S31500000B30FFF764FC06980899FFF792FC3120FFF74F
S31500000B4053FC0C20FFF750FC0B20FFF74DFC099AD5
S31500000B500A9B00922D201146FFF722FC099A0A9B58
S31500000B6000922E201146FFF71BFC2620FFF73CFCC7
S31500000B702720FFF739FC0798FFF736FC3B20FFF7E5
S31500000B8033FC099A0A9B00923A201146FFF708FCAB
S31500000B90099A0A9B009236201146FFF701FC089835
S31500000BA0099A0A9B00921146FFF7FAFB099A0A9BDB
S31500000BB0009204201146FFF7F3FB099A0A9B0F984F
S31500000BC000921146FFF7ECFB1B20FFF70DFC1E20E1
S31500000BD0FFF70AFC1320FFF707FC1220FFF704FCBF
S31500000BE0099A0A9B009211201146FFF7D9FB099A30
S31500000BF00A9B009210201146FFF7D2FB0C98194968
S31500000C000B91FFF793FB0B990C98FFF7B3FB0C982E
S31500000C101549FFF755FC0C9814490D91FFF76EFB2B
S31500000C200C980D99FFF798FB109811490E91FFF754
S31500000C307DFB0E991098FFF79DFB0F9910980902FE
S31500000C40FFF724FC109830211191FFF757FB1098FD
S31500000C501199FFF781FB12B080BDC04600000A4023
S31500000C6000200A400003061800141454000060E631
S31500000C700348400080B582B0074908480190FFF755
S31500000C805CFC019803214902FFF744FC0198FFF739
S31500000C9023FC02B080BDC0469812000000200F4021
S31500000CA080B582B0074908480190FFF746FC0198D5
S31500000CB003214902FFF72EFC0198FFF70DFC02B055
S31500000CC080BDC0469A12000000000F4080B586B075
S31500000CD01F4920480590FFF7C1FD05981E49FFF7FB
S31500000CE0FFFC05980023029319461A46FFF7C4FD38
S31500000CF0029B0598009319461A46FFF79BFD029A38
S31500000D0005981146FFF788FD029A05987D21C900CE
S31500000D100391FFF79BFD029B059801210491009129
S31500000D2019461A46FFF786FD0299049A0598FFF7B9
S31500000D3073FD0399049A0598FFF788FD0598FFF758
S31500000D40B9FC05980321FFF75DFD06B080BDC046DE
S31500000D509C12000000400840A012000080B586B03A
S31500000D601F49E3480590FFF779FD05981D49FFF7F0
S31500000D70B7FC05980023029319461A46FFF77CFD37
S31500000D80029B0598009319461A46FFF753FD029AEF
S31500000D9005981146FFF740FD029A05987D21C90086
S31500000DA00391FFF753FD029B0598012104910091E1
S31500000DB019461A46FFF73EFD0299049A0598FFF771
S31500000DC02BFD0399049A0598FFF740FD0598FFF758
S31500000DD071FC05980321FFF715FD06B080BDC046DE
S31500000DE0A8120000AC12000080B584B01549C148B5
S31500000DF00390FFF733FD03981349FFF771FC03983F
S31500000E000023029319461A46FFF736FD029B039804
S31500000E10009319461A46FFF70DFD029A03981146EC
S31500000E20FFF7FAFC029A03987D21C900FFF70EFD31
S31500000E300398FFF73FFC03980121FFF7E3FC04B09A
S31500000E4080BDC046B4120000B812000080B582B062
S31500000E500B49AE480190FFF7D9FB01980949FFF706
S31500000E6097FB01980121FFF7C1FB0198102102228F
S31500000E70FFF7D6FB0198FFF773FB02B080BDC046B3
S31500000E80C0120000C212000080B582B00B49A04813
S31500000E900190FFF7BBFB01980949FFF779FB019821
S31500000EA00121FFF7A3FB019810210222FFF7B8FBEF
S31500000EB00198FFF755FB02B080BDC046CC1200007A
S31500000EC0CE12000080B582B000200190FFF7D8FB5B
S31500000ED00198FFF7E1FBFFF7B9FBFFF7BDFBFFF753
S31500000EE0C5FB0199012000F04BF902B080BD80B529
S31500000EF07D20000200F010F980BD000080B582B0B0
S31500000F000B497F480190FFF743FD01980949FFF718
S31500000F10E9FC01980021FFF744FD0198D021152234
S31500000F20FFF710FD0198FFF7C5FC02B080BDC04673
S31500000F30D8120000DA12000080B582B00B49724860
S31500000F400190FFF725FD01980949FFF7CBFC0198B1
S31500000F500021FFF726FD0198D0211522FFF7F2FCAC
S31500000F600198FFF7A7FC02B080BDC046E41200005E
S31500000F70E612000080B582B00B4962480190FFF787
S31500000F8007FD01980949FFF7ADFC01980021FFF71D
S31500000F9008FD0198D0211522FFF7D4FC0198FFF730
S31500000FA089FC02B080BDC046F0120000F2120000BB
S31500000FB080B500F037F8FFF71FFDFFF783FFFFF757
S31500000FC085FEFFF7CBFEFFF70FFFFFF769FEFFF782
S31500000FD051FEFFF793FFFFF7CDFFFFF7ADFFFFF7DA
S31500000FE035FFFFF751FFFFF7EBFCFFF780FF0849DE
S31500000FF09C22002088540749B822885406492C228E
S3150000100088540649242288540549885480BDC04620
S315000010106C0020200C01202018022020C80120206E
S31500001020F001202080B58EB02F480190FFF726FAF8
S3150000103084480290FFF722FA2C480390FFF7D6FB6C
S315000010402B480490FFF7D2FB2A480590FFF7CEFB0A
S3150000105029480690FFF756FA28480790FFF752FAF4
S3150000106027480890FFF762FC26480990FFF75EFCC8
S3150000107025480A90FFF75AFC24480B90FFF7AAFA76
S3150000108023480C90FFF7A6FA22480D90FFF7F4F8D4
S315000010900198FFF77BF90298FFF778F90398FFF7B5
S315000010A013FB0498FFF710FB0598FFF70DFB069856
S315000010B0FFF71EFA0798FFF71BFA0898FFF706FCDA
S315000010C00998FFF703FC0A98FFF700FC0B98FFF757
S315000010D053FA0C98FFF750FA0D98FFF7C3F8102053
S315000010E0FFF7F2F80EB080BD00000A40004008404D
S315000010F0008086400020864000000F4000200F4000
S3150000110000801040000050400020104000A04640E3
S31500001110008046400020004080B584B002900298CE
S31500001120401E000E002803D0FFE70120039011E0C7
S315000011300298401E0949086000200190C04303211F
S3150000114000F01EF8019806490860064A072111605A
S315000011500390FFE7039804B080BDC04614E000E0AA
S3150000116018E000E010E000E03F480068002805D0E5
S31500001170FFE73D490868401E0860FFE77047C04624
S3150000118070B582B0024601A8027000910021405657
S31500001190002816D4FFE7002401A908570322D343E9
S315000011A01840174A805809578C07E50EFF24AC40B3
S315000011B0A043009CA401E4B2AC40204319408850EF
S315000011C01AE001A908780F24204008380322D343E7
S315000011D018400A4A8058002549578D07EE0EFF250C
S315000011E0B540A843009DAD01EDB2B540284321406E
S315000011F0083919408850FFE702B070BD1CED00E0C9
S3150000120000E400E080B584B00120810502910D481C
S315000012100190FFF781F87D20C000039000F016F8DA
S3150000122001980299FFF740F9039800F00FF8064974
S3150000123048680A680023521C58410A60486004B096
S3150000124080BDC04600200A406000202081B000908A
S31500001250009805490860FFE703480068002801D0A8
S31500001260FFE7F9E701B070476800202080B56420E9
S31500001270FFF7ECFF80BD80B582B000200190FFF73C
S3150000128097FEFFF7F3FFFFE7FFF7BCFFFCE7000061
S3150000129001050000000000000800080008072700FC
S315000012A0E80300000000010008076300E8030000EF
S315000012B00000010008072700E80300000000010005
S315000012C008000400200000000710000008000400C9
S315000012D020000000071000000800000018000000B1
S315000012E00030000008000000180000000030000078
S315000012F00800000018000000003000000000000098
S315000013001013000000002020480300002801000000
S705000000C139
